S00B00004C43442E7372656346
S11300004DC000006AC0000068C0000066C0000067
S113001064C0000062C0000060C000005EC0000058
S11300205CC000005AC0000058C0000056C0000068
S113003054C000000C94FF0C50C000004EC00000DF
S11300404CC000004AC0000048C0000046C0000088
S113005044C0000042C0000040C000003EC0000098
S11300603CC000003AC0000038C0000036C00000A8
S113007034C0000032C0000030C000002EC00000B8
S11300802CC000002AC0000028C000000F09140979
S113009031093C09420951096C09790911241FBE2F
S11300A0CFEFD0E4DEBFCDBF11E0A0E0B1E0E4E6E5
S11300B0FDE100E00BBF02C007900D92A236B1072C
S11300C0D9F724E0A2E6B1E001C01D92A932B2073B
S11300D0E1F70E94640D0C94B00E92CF2A98662327
S11300E011F02C9A15C02C9813C0AC01022E02C03A
S11300F0559547950A94E2F740FF02C02D9A01C036
S11301002D982E9A2E982150310978F72A9A08951D
S113011027E030E090E0E9CF60E0E0CF089581305F
S1130120910581F01CF4009741F022C082309105C2
S1130130B9F083309105B9F01BC01092A30310925B
S113014025041FC080B180958C708093670188302E
S113015021F481E08093250414C08430B9F011C0E7
S11301601092A30319C08091A303823050F414C0E9
S11301708230910559F08330910571F081309105F9
S113018091F41092260481E090E0089581E0809338
S1130190260482E090E008958091A3038F5F80930A
S11301A0A30383E090E008958130910531F082301B
S11301B0910531F0009741F40FC010927C0042C0C9
S11301C081E080937C0008C08130910529F0823061
S11301D0910509F064C036C080917800909179004F
S11301E0A0E0B0E08093A6039093A703A093A80394
S11301F0B093A903803A23E09207A105B10508F062
S113020046C084369105A105B10530F481E08093A0
S1130210660181E090E00895809121049091220488
S1130220A0912304B091240484569109A109B10931
S11302308C339340A105B10568F51092660181E005
S113024090E008958091780090917900A0E0B0E06A
S11302508093210490932204A0932304B093240454
S1130260803A23E09207A105B10530F083E0809342
S1130270660182E090E0089584369105A105B105F8
S113028060F482E08093660182E090E0089581E06A
S113029090E0089581E090E0089582E090E0089570
S11302A0181619065CF00895000021503109E1F791
S11302B04F5F5F4F8417950719F4089540E050E0AD
S11302C027E033E0F1CF5E9888B95F9A00005F9829
S11302D082E090E0E5CF089581E0F5CF0895813183
S11302E018F48158F0CF08958155EDCF089584E630
S11302F090E0D6DF88E3E7DF86E0E5DF8FE0E3DF49
S113030081E0E1DF8AE090E0CBCF08955E9A88B97E
S11303105F9A00005F9881E090E0C2CF08950F9348
S11303201F93CF93DF93182FEB01D6DF88818823A7
S113033051F001E0010F812FD2DF8991E7DF102F07
S113034088818111F6CFDF91CF911F910F9108958C
S1130350CF93DF93229A239A249A259A269A2B9A4A
S11303602A9A83EC99E00197F1F700C000002B98DA
S11303708BE594E40197F1F700C000002B9A2A98CA
S113038081E2CADE83E1C8DE86E0C6DE82ECC4DE3A
S113039080E2C2DE89E0C0DE80E8BEDE80E4BCDE4E
S11303A0C8EFD1E061E080E099DE2197D9F788E0D9
S11303B0B3DE8CE0B1DEDF91CF91089580E8ACDE4E
S11303C080E4AADE1092650310926603EDE6F1E084
S11303D085E693E01192E817F907E1F70895262FCF
S11303E026952695269590E034E5239F800D911D52
S11303F01124442379F0FC01E359FE4F677081E036
S113040090E002C0880F991F6A95E2F79081892BCA
S113041080830895FC01E359FE4F677081E090E00A
S113042002C0880F991F6A95E2F78095908189230D
S1130430808308950F931F93CF93DF9380E86CDE3E
S113044080E46ADECDE6D1E005E613E061E089915F
S113045045DEC017D107D1F7DF91CF911F910F91DE
S11304600895A1E1B4E090E0FC01EE0FFF1FE80F56
S1130470F91FEE0FFF1FEE0FFF1FE60FF11DE056F1
S1130480FC4F25E134E081E040E09D9191110AC0E8
S113049013969C911397913059F49485913041F4BB
S11304A0842F06C0913021F49081913009F4842F77
S11304B03196A217B30749F708950F931F93CF936B
S11304C0DF934091100450E09A01280F311DCA01B6
S11304D00197880F991F880F991FAC014F5E5B4FDE
S11304E070E0F901EE0FFF1FE20FF31FEE0FFF1F85
S11304F0EE0FFF1FE60FF71FE455FC4F21503109A3
S1130500E901CC0FDD1F2C0F3D1FE901CC0FDD1FCE
S1130510CC0FDD1F6C0F7D1F8B0104551C4FDC01BC
S1130520A85FBB4F9C01245F3B4F81E060E0EA0180
S11305309991AE0191110BC015969C91159791302C
S113054061F4E8019881913041F4862F06C091301E
S113055021F49081913009F4862F31960F5F1F4F5B
S11305601196A217B30719F7DF91CF911F910F913D
S113057008952DEA33E06DE074E0482F50E0DA018D
S113058011974230510544F0FD01E20FF31F8291AF
S11305908183E217F307D9F7245F3F4F2617370704
S11305A081F78091AB038F5F8093AB039091AA0393
S11305B09B5F9093AA03873030F0809109018150AA
S11305C08093090108958091090184508093090161
S11305D00895CF93DF9310922804CBE0D0E014C0A9
S11305E0808181119F5F3C96E217F307C9F79093CE
S11305F02804983019F4CE01BCDF21961092280407
S11306002197C230D1054CF090912804FE01E455A5
S1130610FC4F9E01245F3B4FE3CFDF91CF910895C0
S1130620982F682F70E0FB01EE0FFF1FE60FF71FF6
S1130630EE0FFF1FEE0FFF1FE455FC4F8081811169
S113064013C09B01F901EE0FFF1FE20FF31FEE0F22
S1130650FF1FEE0FFF1FE355FC4F21E030E08191B7
S1130660882309F46CC002C020E030E040910E04FD
S1130670042E000C550B421753070CF45DC08091F7
S11306800C04843011F0813031F480910D048130F8
S113069011F44F5F5F4FFB01EE0FFF1FE60FF71FD3
S11306A0EE0FFF1FEE0FFF1FE455FC4FE40FF51F85
S11306B080818130A1F4292F30E0F901EE0FFF1F72
S11306C0E20FF31FEE0FFF1FEE0FFF1FE40FF51FE6
S11306D0E355FC4F4F5F5F4F81918130D9F3FB01AC
S11306E0EE0FFF1FE60FF71FEE0FFF1FEE0FFF1FAA
S11306F0E455FC4FE40FF51F808181111AC04C3082
S11307005105BCF4892F90E0FC01EE0FFF1FE80FA8
S1130710F91FEE0FFF1FEE0FFF1FE40FF51FE35548
S1130720FC4F4F5F5F4F8191811103C04C305105E5
S1130730C1F78CE0841B08958CE0821B08952F5F21
S11307403F4F2C30310509F08ACF089590E0FC0129
S1130750EE0FFF1FEE0FFF1FEC5EFB4F20812111F8
S113076024C0FC01EE0FFF1FEE0FFF1FE45FFB4FE1
S11307702781211116C0FC01EE0FFF1FEE0FFF1F92
S1130780E45FFB4F268121110EC0880F991F880F4B
S1130790991FFC01E45FFB4F8581882341F080E0D1
S11307A005C082E003C081E001C083E08F5F08954B
S11307B0AF92BF92CF92DF92FF920F931F93CF938A
S11307C0DF9390E09C012F5F3F4F0796281739076E
S11307D0D4F4F62ED22F06E0020FC62ED12C5601E9
S11307E085E0A80EB11C15E0160FCA14DB0444F40E
S11307F0CF2D41E06C2F8D2FF2DDCF5FC113F9CFE8
S1130800DF5FD013F2CFDF91CF911F910F91FF9053
S1130810DF90CF90BF90AF9008959F92AF92BF9218
S1130820CF92DF92EF92FF920F931F93CF93DF93B8
S1130830029708F07CC0C2DD90906301992041F0DA
S11308400F2EFCEAEF2EF3E0FF2EF02DD0E068C06F
S11308500F2EF1E1CF2EF4E0DF2EF02DA12CB12CE0
S11308600F2EFCE0EF2EF4E0FF2EF02D30C0899126
S11308708823B1F0F70182819801280F311D87FD8B
S11308803A95822F880F880F880F821B4AF0938134
S11308909501290F311D622F660F620F660F88DFE5
S11308A00F5F1F4F0430110511F7FFEFAF1ABF0A96
S11308B084E0C80ED11CE4E0AE16B10441F40F2E5E
S11308C0FCEAEF2EF3E0FF2EF02DD92D15C0E60142
S11308D000E010E0CCCFF80181918F01882319F05A
S11308E06D2F8C2F65DFC95FC435A9F7FCE0EF0ECF
S11308F0F11CDA5FD033B9F0C92D8701ECCFF801D0
S113090081918F01882319F06D2F8C2F51DFC95FDE
S1130910C435A9F7FCE0EF0EF11CDA5FD03319F00F
S11309208701C0E0ECCF86DD81E090E002C080E08A
S113093090E0DF91CF911F910F91FF90EF90DF90A6
S1130940CF90BF90AF909F900895ECE0F4E08CE1DD
S113095094E015821682178210863496E817F907F8
S1130960C1F70895FF920F931F93CF93DF93D82F6E
S1130970C62F863091F48FEF860F843008F00CC1B7
S11309800CE014E082E0F8018483DFDF81E0F80109
S11309908583868382878187FFC0853009F04EC0B6
S11309A0862F8D7F813061F40CE014E0FF24F394F2
S11309B0F801F482CADFF801F582F682F782F08644
S11309C0C23019F0C43009F096C1ECE0F4E00281C1
S11309D01381602F83E0810F70DD8823C9F0602FBD
S11309E082E0810F6ADD882399F0602F812F65DD15
S11309F0882371F0602F81E0810F5FDD882341F04F
S1130A008091100490E00197810F911D079721F4C4
S1130A1081E080930D046FC1153018F084E0809359
S1130A200F040CE014E084E0F80184838EDF81E09D
S1130A30F801858381878587818B5DC18111ACC075
S1130A40613069F40CE014E082E0F80184837DDF16
S1130A5081E0F801858386838783828756C062306C
S1130A6009F044C0ECE0F4E002811381602F812F8F
S1130A7024DD882341F08091100490E00197810FD8
S1130A80911D079709F5602F812FEBDC8823C1F0B6
S1130A901123B1F01150163019F010930F0403C054
S1130AA085E080930F040CE014E083E0F801848374
S1130AB04CDF81E0F8018683828786878187C2C103
S1130AC081E080930D04BEC1163019F485E0809353
S1130AD00F040CE014E083E0F801848336DF81E046
S1130AE0F8018683828786878187ACC1633069F485
S1130AF00CE014E082E0F801848327DF81E0F80150
S1130B008683818782878387F6C0C43009F09AC1BF
S1130B10ECE0F4E002811381602F812FCEDC882386
S1130B2041F08091100490E00197810F911D079787
S1130B3009F5602F812F95DC8823C1F01123B1F0D2
S1130B401150163019F010930F0403C085E0809300
S1130B500F040CE014E083E0F8018483F6DE81E006
S1130B60F80185838187858782876CC183E08093C0
S1130B700D0468C1163019F485E080930F040CE06D
S1130B8014E083E0F8018483E0DE81E0F8018583EA
S1130B9081878587828756C1D43009F0ACC0C130C3
S1130BA069F40CE014E082E0F8018483CEDE81E095
S1130BB0F801818782878387878356C0C23009F012
S1130BC044C0ECE0F4E002811381602F812F75DCD6
S1130BD0882341F08091100490E00197810F911DCA
S1130BE0079709F5602F812F3CDC8823C1F011237E
S1130BF0B1F01150163019F010930F0403C085E0C2
S1130C0080930F040CE014E083E0F80184839DDEFC
S1130C1081E0F80186838287868785836EC181E0BF
S1130C2080930D046AC1163019F485E080930F0493
S1130C300CE014E083E0F801848387DE81E0F801AE
S1130C40868382878687858358C1C33069F40CE024
S1130C5014E082E0F801848378DE81E0F801818782
S1130C60858386838783EEC0C43009F046C1ECE0F7
S1130C70F4E002811381602F812F1FDC882341F06F
S1130C808091100490E00197810F911D079709F559
S1130C90602F812FE6DB8823C1F01123B1F01150BE
S1130CA0163019F010930F0403C085E080930F04ED
S1130CB00CE014E083E0F801848347DE81E0F8016E
S1130CC0858381878587868718C183E080930D0497
S1130CD014C1163019F485E080930F040CE014E07D
S1130CE083E0F801848331DE81E0F8018583818724
S1130CF08587868702C1D13009F0A4C0C13069F468
S1130D000CE014E082E0F80184831FDE81E0F80146
S1130D10858386838783838752C0C23009F040C0AD
S1130D20ECE0F4E0D281C3816D2F8C2FC6DB8823E5
S1130D3041F08091100490E001978C0F911D07976A
S1130D40F9F46D2F8C2F8DDB8823B1F0CC23A1F027
S1130D50C150C63019F0C0930F0403C085E08093DE
S1130D600F04CCE0D4E083E08C83EFDD81E08E835C
S1130D708A878E878D8712C181E080930D040EC10E
S1130D80C63019F485E080930F04CCE0D4E083E00E
S1130D908C83DBDD81E08E838A878E878D87FEC01E
S1130DA0C33069F40CE014E082E0F8018483CDDD03
S1130DB081E0F80185838187828783879EC0C43060
S1130DC009F0ECC0ECE0F4E0D281C3816D2F8C2FEC
S1130DD074DB882341F08091100490E001978C0F1C
S1130DE0911D0797F9F46D2F8C2F3BDB8823B1F00D
S1130DF0CC23A1F0C150C63019F0C0930F0403C036
S1130E0085E080930F04CCE0D4E083E08C839DDD07
S1130E1081E08D8389878D878E83C0C083E0809332
S1130E200D04BCC0C63019F485E080930F04CCE0F7
S1130E30D4E083E08C8389DD81E08D8389878D878D
S1130E408E83ACC0D23009F058C08C2F8D7F813096
S1130E5009F043C0ECE0F4E01281D381612F8D2FBF
S1130E602CDB882341F08091100490E001978D0FD2
S1130E70911D079709F5612F8D2FF3DA8823C1F0AF
S1130E80DD23B1F0D150D63019F0D0930F0403C054
S1130E9085E080930F040CE014E083E0F801848380
S1130EA054DD81E0F801818782878683858715C0B8
S1130EB082E080930D0411C0D63019F485E080934C
S1130EC00F040CE014E083E0F80184833EDD81E04C
S1130ED0F8018187828786838587C23019F0C43000
S1130EE009F05CC0CCE0D4E082E08C832EDD81E0AC
S1130EF08D838E838A878B8751C0D33009F04EC08F
S1130F008C2F8D7F813009F03BC0ECE0F4E012813E
S1130F10D381612F8D2FD1DA811121C0612F8D2FC3
S1130F20A0DA8823C1F0DD23B1F0D150D63019F016
S1130F30D0930F0403C085E080930F040CE014E009
S1130F4083E0F801848301DD81E0F80185838187F2
S1130F508287868715C082E080930D0411C0D63045
S1130F6019F485E080930F040CE014E083E0F801A9
S1130F708483EBDC81E0F80185838187828786871F
S1130F80C23011F0C43051F4CCE0D4E082E08C8360
S1130F90DCDC81E08E838F838A878987DF91CF9120
S1130FA01F910F91FF900895CF93DF93C82F6DD6B3
S1130FB0D0E0BE01F3D503C068D6BE01EFD5909151
S1130FC06C018917C9F38530B9F380936C01ECE0A7
S1130FD0F4E0808391E091839DEF928393E0938387
S1130FE061E070E090E0BEDCDF91CF910895FF9264
S1130FF00F931F93CF93DF93A8DCCCEAD3E08E0149
S113100040E050E0FF24F39419C01082211531050B
S113101021F480FD07C0F08205C0BC016F5F7F4FE3
S113102060FFF082019631968430910571F74F5F2D
S11310305F4F045F1F4F4830510539F0F80180E0DD
S113104090E09A0121703327E0CF85E0ADDF8091F5
S11310500C049EEF980F923020F462E070E090E070
S113106081DC80910C04843029F463E070E084E036
S113107090E078DCECE0F4E0138285E08283648124
S1131080662309F185E194E070E0660F771F660F2F
S1131090771F6B5E7B4F4CEA53E031E010C0219127
S11310A0222319F015963C9315971196E817F90722
S11310B0B1F70496445F5F4F8617970721F0FC0150
S11310C03497DA01ECCF85E06FDF80910C049EEF5A
S11310D0980F923020F462E070E090E043DC80915D
S11310E00C04843029F463E070E084E090E03ADC9E
S11310F0ECE0F4E083E0838385E08283648166230B
S113110009F185E194E070E0660F771F660F771FA1
S11311106B5E7B4F4CEA53E031E010C021912223F7
S113112019F099963C9399971196E817F907B1F736
S11311300496445F5F4F8617970721F0FC013497AC
S1131140DA01ECCF85E030DF80910C049EEF980F3C
S1131150923020F462E070E090E004DCECE0F4E033
S113116086E0838385E082836481662309F43DC03D
S113117085E194E049EF53E070E0660F771F660F56
S1131180771F6B5E7B4F31E00DC0219121113C93A1
S11311901196E817F907C9F70496445F5F4F68177B
S11311A0790719F1FC013497DA01EFCF1186411563
S11311B0510521F480FD07C0118705C0BC016F5F94
S11311C07F4F60FF1187019631968C30910571F73E
S11311D02F5F3F4F2C962830310559F0FE0189E0EE
S11311E090E0A90141705527E1CF20E030E011E003
S11311F0F5CFDF91CF911F910F91FF900895CF927A
S1131200DF92EF92FF920F931F93CF93DF93883077
S1131210910508F07DC0FC01EA5BFF4FD2C4CED833
S1131220E6DE81E090E09DC220912604222309F4A9
S113123060C2109226041092630181E080936201DF
S1131240ECEAF3E02CE034E009C011928E179F071A
S1131250E1F7FC018217930709F450C2CF010C9601
S1131260F4CF1092A4038CE080932704809125048A
S1131270882309F470C288C080912504882309F466
S1131280A8C182C08091270488230CF453C28091A2
S1131290660181113EC280912604882309F445C267
S11312A033C280916401882361F01092A4031092E8
S11312B0650187E08093040180912504811164C055
S11312C0CCC18091AA038F5F8093AA0380912504E7
S11312D0882309F45EC058C08091A403803208F4C6
S11312E02FC285DE8091250481114EC087E090E0F5
S11312F038C220912604222309F428C2109226041D
S11313001092640181E08093620181E090E01EC24A
S113131080E090E08330910509F440C03CF40097EC
S113132099F18230910509F01CC233C085309105D2
S113133039F00CF44EC18630910509F48EC111C206
S113134060911004662309F473C185E194E0ECE034
S1131350F4E0238130E0A901440F551F420F531FCD
S1131360440F551F440F551F2281420F511D27FD65
S11313705A9544555C4F70E0660F771F660F771FD0
S11313806B5E7B4F31E050C119D831DE80E090E0D4
S1131390E8C187E009DE82E090E0E3C18091660164
S11313A0813091F58091270418160CF00DC1ECE002
S11313B0F4E0D280D394D2828CE080932704E4803A
S11313C0F12C1E141F040CF0FFC010910F04C0E098
S11313D0D0E00F2EFCE0CF2EF02D812F21D9082F45
S11313E08C2FB4D99C2D981B892F801B9091270496
S11313F08D19981708F4892F8093270421961F5F6D
S1131400CE15DF0551F7E0C0823009F03CC08CE016
S113141080932704ECE0F4E0C381E480F12CC7015D
S113142001978C0F911D07974CF460910E048C2F3B
S113143044D8882319F0CF5FC0930F041E141F04EF
S11314400CF0C2C0ECE0F4E01381C280C0E0D0E054
S11314500F2EFCE0DF2EF02D812FE2D8082F8C2FE9
S113146075D99D2D981B892F801B909127048C1969
S1131470981708F4892F8093270421961F5FEC1690
S1131480FD0651F7A1C08330C9F58CE08093270491
S1131490C0910F04CC2351F060910E048C2F0E9454
S11314A03102882319F0C150C0930F04E090100456
S11314B0F12C1E141F040CF087C0ECE0F4E013813F
S11314C0C280C0E0D0E00F2EFCE0DF2EF02D812F93
S11314D0A7D8082F8C2F3AD99D2D981B892F801BB4
S11314E0909127048C19981708F4892F8093270466
S11314F021961F5FCE15DF0551F766C08091260443
S11315008823C9F18CE08093270480910D048430F2
S113151021F481E080930D0403C08F5F80930D0458
S1131520CCE0D4E0698188811DDAEC80F12C1E14B2
S11315301F04F4F41B81CA80C0E0D0E00F2EFCE04D
S1131540DF2EF02D812F6CD8082F8C2FFFD89D2DE6
S1131550981B892F801B909127048C19981708F4E5
S1131560892F8093270421961F5FCE15DF0551F73D
S11315701092260429C08DE080932704E090100483
S1131580F12C1E141F0404F5ECE0F4E01381C28076
S1131590C0E0D0E00F2EFCE0DF2EF02D812F40D8EC
S11315A0082F8C2FD3D89D2D981B892F801B9091A9
S11315B027048C19981708F4892F809327042196FF
S11315C01F5FCE15DF0551F71092660183E090E0AE
S11315D0C8C08091A40390910901891730F48F5FEA
S11315E08093A40384E090E0BCC080912704181683
S11315F02CF4ECE0F4E092819F5F9283815080931D
S1131600270481E08093A40384E090E0AAC02191A0
S113161021113C9311968E179F07C9F70496445FD6
S11316205F4F8617970721F0FC013497DA01EFCF5B
S11316300E94E90290916401ECEAF3E02CE034E0CA
S113164041E080818111942F3C962E173F07C9F702
S11316509093640185E090E084C02091A40320FD70
S113166042C040916501483010F5842F90E0FC01A0
S1131670EE0FFF1FE80FF91FEE0FFF1FEE0FFF1F06
S1131680E455FC4F0196BC01660F771F860F971F28
S1131690880F991F880F991F84559C4F31E031930F
S11316A0E817F907E1F74F5F409365011CC03091DB
S11316B00401832F90E0AC01440F551F840F951F44
S11316C0880F991F880F991FFC01E455FC4F88541B
S11316D09C4F11928E179F07E1F73150309304010C
S11316E081E0809363012F5F2093A40386E090E060
S11316F038C020912504211147CE33C080912504A0
S1131700882309F446CE40CE80912604811108C076
S113171011C080912504811137CE83E090E0FACD89
S113172080912504811130CE39CE80912504811118
S11317302BCE4FCF80912504882309F401CE24CEEB
S113174080912504882309F488CF1ECE2091250496
S113175021111ACE06C080916601813009F054CE61
S113176026CEDF91CF911F910F91FF90EF90DF90E4
S1131770CF900895CF93DF93D82FC091AA03CA3096
S113178040F40E946F018091AA03805D0E9486014B
S11317905FC0C43170F40E946F0181E30E9486012E
S11317A081E08D0F0E946F0186E28C0F0E948601FA
S11317B04FC0CE3170F40E946F0182E30E94860113
S11317C081E08D0F0E946F018CE18C0F0E948601D5
S11317D03FC0C83270F40E946F0183E30E94860107
S11317E081E08D0F0E946F0182E18C0F0E948601BF
S11317F02FC0C23370F40E946F0183E30E948601FC
S113180081E08D0F0E946F0188E08C0F0E94860199
S11318101FC0CC3370F40E946F0183E30E948601E1
S113182081E08D0F0E946F018EEF8C0F0E94860164
S11318300FC0C63468F40E946F0183E30E948601DE
S113184081E08D0F0E946F0184EF8C0F0E9486014E
S1131850DF91CF9108958130910569F01CF4892BB3
S113186039F051C082309105D1F00397E9F04BC0B3
S11318701092250424C080916201882309F449C090
S11318801092AA0381E08093AB038EE18093090157
S113189010926201809125048823C9F037C0809199
S11318A06401811140C03AC080916201882309F427
S11318B03FC01092620180912504811127C06AE023
S11318C071E081E00E948F0181E090E008956AE276
S11318D071E081E00E948F0188E04CDF88E10E9482
S11318E06F018091AB03805D0E94860182E090E0ED
S11318F0089561E471E081E00E948F018DE13ADF97
S113190083E090E0089580E090E0089580E090E026
S11319100895809125048111F9CFD1CF80912504B8
S11319208111F4CFD4CF80912504882311F3EECF15
S1131930809125048823E9F2E9CF8BE0809381002C
S11319408DE790E0909389008093880082E08093F3
S11319506F0010928500109284008091050190918F
S11319600601A0910701B09108018093680190934A
S11319706901A0936A01B0936B018FB780688FBF30
S11319800895EF92FF920F931F93CF93DF93C7E6CF
S1131990D3E00F2EF3EAEF2EF3E0FF2EF02D8E01AD
S11319A04E815F81688579858A819B81AC81BD8107
S11319B0481759076A077B0758F0EA85FB85888131
S11319C099810995998388831E821F8218861986B6
S11319D0F80186819781A085B1850596A11DB11D69
S11319E086839783A087B1872C96CE15DF05B9F639
S11319F0DF91CF911F910F91FF90EF9008951F9267
S1131A000F920FB60F9211240BB60F922F933F93A0
S1131A104F935F936F937F938F939F93AF93BF93F2
S1131A20EF93FF938091680190916901A0916A01FD
S1131A30B0916B010197A109B1098093680190935A
S1131A406901A0936A01B0936B01892B8A2B8B2BBC
S1131A5089F497DF8091050190910601A091070117
S1131A60B09108018093680190936901A0936A0181
S1131A70B0936B01FF91EF91BF91AF919F918F91C3
S1131A807F916F915F914F913F912F910F900BBE7A
S1131A900F900FBE0F901F901895609305017093DF
S1131AA00601809307019093080160936801709385
S1131AB0690180936A0190936B010895EAE7F0E06D
S1131AC08081806E80830895E7E6F3E011821082BE
S1131AD082E390E0A0E0B0E082839383A483B583A3
S1131AE086839783A087B18724ED30E033872287EC
S1131AF01586148686879787A08BB18B828B938BF0
S1131B00A48BB58B2FE830E0378B268B118E108E8B
S1131B1049E150E060E070E0428F538F648F758F2D
S1131B20468F578F60A371A32FEF38E033A322A30E
S1131B3015A214A286A397A3A0A7B1A782A793A7CF
S1131B40A4A7B5A78DE094E097A786A711AA10AA29
S1131B5084EF91E0A0E0B0E082AB93ABA4ABB5AB73
S1131B6086AB97ABA0AFB1AF8BE29CE093AF82AFF3
S1131B7011B88CE082B98FEF87B918B88AB91BB84D
S1131B800E94A8010E94DE010E94770197DF65E0B0
S1131B9070E080E090E081DFD0DEFFCF97FB072E7E
S1131BA016F4009406D077FD08D014D007FC05D0B5
S1131BB03EF4909581959F4F0895709561957F4F60
S1131BC00895EE0FFF1F0024001C0BBE0790F69132
S1131BD0E02D0994AA1BBB1B51E107C0AA1FBB1F20
S1131BE0A617B70710F0A61BB70B881F991F5A95A5
S1131BF0A9F780959095BC01CD0108958F929F928D
S1131C00AF92BF92CF92DF92EF92FF92CF93DF9386
S1131C10EC01688179818A819B8161157105810557
S1131C20910521F464E279ED8BE597E02DE133EF42
S1131C3041E050E038D049015A019B01AC01A7EAC8
S1131C40B1E44DD06B017C01ACEEB4EFA50194017D
S1131C5052D0DC01CB018C0D9D1DAE1DBF1DB7FF05
S1131C6003C00197A109B04888839983AA83BB83E1
S1131C709F77DF91CF91FF90EF90DF90CF90BF904F
S1131C80AF909F908F900895B9CF80E091E0B6CF48
S1131C90A0E0B0E08093000190930101A0930201C1
S1131CA0B09303010895052E97FB16F400940FD00A
S1131CB057FD05D024D007FC02D046F408C0509547
S1131CC04095309521953F4F4F4F5F4F0895909524
S1131CD08095709561957F4F8F4F9F4F089531D0B8
S1131CE0A59F900DB49F900DA49F800D911D11246C
S1131CF00895B7FFF4CFF3DF821B930B0895A1E29D
S1131D001A2EAA1BBB1BFD010DC0AA1FBB1FEE1F71
S1131D10FF1FA217B307E407F50720F0A21BB30BBC
S1131D20E40BF50B661F771F881F991F1A9469F738
S1131D3060957095809590959B01AC01BD01CF0194
S1131D400895A29FB001B39FC001A39F700D811D90
S1131D501124911DB29F700D811D1124911D0895B0
S1071D60F894FFCF21
S1131D640100000007010000001E20202020205450
S1131D74455452495320202020202D3E5055534889
S1131D8420544F2053544152540053434F52453A24
S1131D94202020202020202020204C4556454C3A49
S1131DA400202047414D45204F56455221202020F4
S1131DB42046494E414C2053434F52453A2020205B
S1051DC4000019
S9030000FC
